{
  "contractName": "MasterContract",
  "abi": [
    {
      "inputs": [
        {
          "internalType": "string",
          "name": "_name",
          "type": "string"
        },
        {
          "internalType": "string",
          "name": "_email",
          "type": "string"
        },
        {
          "internalType": "bytes32",
          "name": "_encryptedMasterPassword",
          "type": "bytes32"
        }
      ],
      "name": "registerUser",
      "outputs": [],
      "stateMutability": "nonpayable",
      "type": "function"
    },
    {
      "inputs": [],
      "name": "getUsername",
      "outputs": [
        {
          "internalType": "string",
          "name": "",
          "type": "string"
        }
      ],
      "stateMutability": "view",
      "type": "function",
      "constant": true
    },
    {
      "inputs": [],
      "name": "getMasterPassword",
      "outputs": [
        {
          "internalType": "bytes32",
          "name": "",
          "type": "bytes32"
        }
      ],
      "stateMutability": "view",
      "type": "function",
      "constant": true
    }
  ],
  "bytecode": "0x608060405234801561001057600080fd5b5061059c806100206000396000f3fe608060405234801561001057600080fd5b50600436106100415760003560e01c8063075b72be14610046578063681f3e6d1461006457806368f6d82a14610082575b600080fd5b61004e61009e565b60405161005b9190610230565b60405180910390f35b61006c6100a8565b60405161007991906102e4565b60405180910390f35b61009c6004803603810190610097919061047b565b61013a565b005b6000600254905090565b6060600080546100b790610535565b80601f01602080910402602001604051908101604052809291908181526020018280546100e390610535565b80156101305780601f1061010557610100808354040283529160200191610130565b820191906000526020600020905b81548152906001019060200180831161011357829003601f168201915b5050505050905090565b8260009080519060200190610150929190610174565b508160019080519060200190610167929190610174565b5080600281905550505050565b82805461018090610535565b90600052602060002090601f0160209004810192826101a257600085556101e9565b82601f106101bb57805160ff19168380011785556101e9565b828001600101855582156101e9579182015b828111156101e85782518255916020019190600101906101cd565b5b5090506101f691906101fa565b5090565b5b808211156102135760008160009055506001016101fb565b5090565b6000819050919050565b61022a81610217565b82525050565b60006020820190506102456000830184610221565b92915050565b600081519050919050565b600082825260208201905092915050565b60005b8381101561028557808201518184015260208101905061026a565b83811115610294576000848401525b50505050565b6000601f19601f8301169050919050565b60006102b68261024b565b6102c08185610256565b93506102d0818560208601610267565b6102d98161029a565b840191505092915050565b600060208201905081810360008301526102fe81846102ab565b905092915050565b6000604051905090565b600080fd5b600080fd5b600080fd5b600080fd5b7f4e487b7100000000000000000000000000000000000000000000000000000000600052604160045260246000fd5b61035c8261029a565b810181811067ffffffffffffffff8211171561037b5761037a610324565b5b80604052505050565b600061038e610306565b905061039a8282610353565b919050565b600067ffffffffffffffff8211156103ba576103b9610324565b5b6103c38261029a565b9050602081019050919050565b82818337600083830152505050565b60006103f26103ed8461039f565b610384565b90508281526020810184848401111561040e5761040d61031f565b5b6104198482856103d0565b509392505050565b600082601f8301126104365761043561031a565b5b81356104468482602086016103df565b91505092915050565b61045881610217565b811461046357600080fd5b50565b6000813590506104758161044f565b92915050565b60008060006060848603121561049457610493610310565b5b600084013567ffffffffffffffff8111156104b2576104b1610315565b5b6104be86828701610421565b935050602084013567ffffffffffffffff8111156104df576104de610315565b5b6104eb86828701610421565b92505060406104fc86828701610466565b9150509250925092565b7f4e487b7100000000000000000000000000000000000000000000000000000000600052602260045260246000fd5b6000600282049050600182168061054d57607f821691505b6020821081036105605761055f610506565b5b5091905056fea2646970667358221220dfff2213026301a800c1a6432a0118c4b7831f874fe196b745e2b50b86f7203d64736f6c634300080d0033",
  "immutableReferences": {},
  "source": "// SPDX-License-Identifier: MIT\r\npragma solidity ^0.8.0;\r\n\r\ncontract MasterContract {\r\n    string name;\r\n    string email;\r\n    bytes32 encryptedMasterPassword;\r\n\r\n    function registerUser(string memory _name, string memory _email, bytes32 _encryptedMasterPassword) public {\r\n        name = _name;\r\n        email = _email;\r\n        encryptedMasterPassword = _encryptedMasterPassword;\r\n    }\r\n\r\n    function getUsername() public view returns(string memory) {\r\n        return name;\r\n    }\r\n\r\n    function getMasterPassword() public view returns(bytes32) {\r\n        return encryptedMasterPassword;\r\n    }\r\n} ",
  "sourcePath": "D:\\APIIT\\Year 3\\FYP\\Safe-Space\\SMART-CONTRACTS\\contracts\\MasterContract.sol",
  "compiler": {
    "name": "solc",
    "version": "0.8.13+commit.abaa5c0e.Emscripten.clang"
  },
  "schemaVersion": "3.4.16",
  "updatedAt": "2024-07-27T20:42:01.810Z",
  "networkType": "ethereum",
  "devdoc": {
    "kind": "dev",
    "methods": {},
    "version": 1
  },
  "userdoc": {
    "kind": "user",
    "methods": {},
    "version": 1
  }
}