{
  "contractName": "PasswordContract",
  "abi": [
    {
      "anonymous": false,
      "inputs": [
        {
          "indexed": false,
          "internalType": "string",
          "name": "service",
          "type": "string"
        }
      ],
      "name": "PasswordAdded",
      "type": "event"
    },
    {
      "anonymous": false,
      "inputs": [
        {
          "indexed": false,
          "internalType": "string",
          "name": "service",
          "type": "string"
        }
      ],
      "name": "PasswordDeleted",
      "type": "event"
    },
    {
      "anonymous": false,
      "inputs": [
        {
          "indexed": false,
          "internalType": "string",
          "name": "service",
          "type": "string"
        }
      ],
      "name": "PasswordUpdated",
      "type": "event"
    },
    {
      "inputs": [
        {
          "internalType": "string",
          "name": "_service",
          "type": "string"
        },
        {
          "internalType": "bytes32",
          "name": "_username",
          "type": "bytes32"
        },
        {
          "internalType": "bytes32",
          "name": "_password",
          "type": "bytes32"
        }
      ],
      "name": "addPassword",
      "outputs": [],
      "stateMutability": "nonpayable",
      "type": "function"
    },
    {
      "inputs": [
        {
          "internalType": "string",
          "name": "_service",
          "type": "string"
        }
      ],
      "name": "getPassword",
      "outputs": [
        {
          "components": [
            {
              "internalType": "string",
              "name": "service",
              "type": "string"
            },
            {
              "internalType": "bytes32",
              "name": "username",
              "type": "bytes32"
            },
            {
              "internalType": "bytes32",
              "name": "password",
              "type": "bytes32"
            }
          ],
          "internalType": "struct PasswordContract.Password",
          "name": "",
          "type": "tuple"
        }
      ],
      "stateMutability": "view",
      "type": "function",
      "constant": true
    },
    {
      "inputs": [
        {
          "internalType": "string",
          "name": "_service",
          "type": "string"
        },
        {
          "internalType": "bytes32",
          "name": "_username",
          "type": "bytes32"
        },
        {
          "internalType": "bytes32",
          "name": "_password",
          "type": "bytes32"
        }
      ],
      "name": "editPassword",
      "outputs": [],
      "stateMutability": "nonpayable",
      "type": "function"
    },
    {
      "inputs": [
        {
          "internalType": "string",
          "name": "_service",
          "type": "string"
        }
      ],
      "name": "deletePassword",
      "outputs": [],
      "stateMutability": "nonpayable",
      "type": "function"
    },
    {
      "inputs": [],
      "name": "getAllPasswords",
      "outputs": [
        {
          "components": [
            {
              "internalType": "string",
              "name": "service",
              "type": "string"
            },
            {
              "internalType": "bytes32",
              "name": "username",
              "type": "bytes32"
            },
            {
              "internalType": "bytes32",
              "name": "password",
              "type": "bytes32"
            }
          ],
          "internalType": "struct PasswordContract.Password[]",
          "name": "",
          "type": "tuple[]"
        }
      ],
      "stateMutability": "view",
      "type": "function",
      "constant": true
    }
  ],
  "bytecode": "0x608060405234801561001057600080fd5b50611485806100206000396000f3fe608060405234801561001057600080fd5b50600436106100575760003560e01c806301b8c31c1461005c57806314f003771461008c578063814eca5d146100a8578063b1fc8dc5146100c4578063b2a43c8c146100e0575b600080fd5b61007660048036038101906100719190610c4d565b6100fe565b6040516100839190610d87565b60405180910390f35b6100a660048036038101906100a19190610dd5565b610286565b005b6100c260048036038101906100bd9190610c4d565b6103d9565b005b6100de60048036038101906100d99190610dd5565b610507565b005b6100e8610696565b6040516100f59190610f56565b60405180910390f35b61010661095c565b600082511161014a576040517f08c379a000000000000000000000000000000000000000000000000000000000815260040161014190610fd5565b60405180910390fd5b6000801b60008360405161015e9190611031565b908152602001604051809103902060010154036101b0576040517f08c379a00000000000000000000000000000000000000000000000000000000081526004016101a790611094565b60405180910390fd5b6000826040516101c09190611031565b90815260200160405180910390206040518060600160405290816000820180546101e9906110e3565b80601f0160208091040260200160405190810160405280929190818152602001828054610215906110e3565b80156102625780601f1061023757610100808354040283529160200191610262565b820191906000526020600020905b81548152906001019060200180831161024557829003601f168201915b50505050508152602001600182015481526020016002820154815250509050919050565b60008351116102ca576040517f08c379a00000000000000000000000000000000000000000000000000000000081526004016102c190610fd5565b60405180910390fd5b6000801b6000846040516102de9190611031565b90815260200160405180910390206001015403610330576040517f08c379a000000000000000000000000000000000000000000000000000000000815260040161032790611094565b60405180910390fd5b60405180606001604052808481526020018381526020018281525060008460405161035b9190611031565b90815260200160405180910390206000820151816000019080519060200190610385929190610983565b5060208201518160010155604082015181600201559050507fd0b43b0b96083c98cc0f0370575812de87ee48ff1bde30bcd74f3518443bc4f5836040516103cc919061114d565b60405180910390a1505050565b600081511161041d576040517f08c379a000000000000000000000000000000000000000000000000000000000815260040161041490610fd5565b60405180910390fd5b6000801b6000826040516104319190611031565b90815260200160405180910390206001015403610483576040517f08c379a000000000000000000000000000000000000000000000000000000000815260040161047a90611094565b60405180910390fd5b6000816040516104939190611031565b9081526020016040518091039020600080820160006104b29190610a09565b6001820160009055600282016000905550506104cd8161082a565b7f7fe39f34652e53abb3a6dde016a89990b5f859e1eaf16e5d2f0474fc85825f0a816040516104fc919061114d565b60405180910390a150565b600083511161054b576040517f08c379a000000000000000000000000000000000000000000000000000000000815260040161054290610fd5565b60405180910390fd5b6000801b60008460405161055f9190611031565b908152602001604051809103902060010154146105b1576040517f08c379a00000000000000000000000000000000000000000000000000000000081526004016105a8906111bb565b60405180910390fd5b6040518060600160405280848152602001838152602001828152506000846040516105dc9190611031565b90815260200160405180910390206000820151816000019080519060200190610606929190610983565b506020820151816001015560408201518160020155905050600183908060018154018082558091505060019003906000526020600020016000909190919091509080519060200190610659929190610983565b507f014dec8c58aecd33e9536a01ab06316842c881e68990fdd58a0711abc730abec83604051610689919061114d565b60405180910390a1505050565b6060600060018054905067ffffffffffffffff8111156106b9576106b8610b22565b5b6040519080825280602002602001820160405280156106f257816020015b6106df61095c565b8152602001906001900390816106d75790505b50905060005b6001805490508110156108225760006001828154811061071b5761071a6111db565b5b90600052602060002001604051610732919061129e565b908152602001604051809103902060405180606001604052908160008201805461075b906110e3565b80601f0160208091040260200160405190810160405280929190818152602001828054610787906110e3565b80156107d45780601f106107a9576101008083540402835291602001916107d4565b820191906000526020600020905b8154815290600101906020018083116107b757829003601f168201915b5050505050815260200160018201548152602001600282015481525050828281518110610804576108036111db565b5b6020026020010181905250808061081a906112ee565b9150506106f8565b508091505090565b6000610835826108dc565b90506001805490508110156108d85760018080805490506108569190611336565b81548110610867576108666111db565b5b9060005260206000200160018281548110610885576108846111db565b5b9060005260206000200190805461089b906110e3565b6108a6929190610a49565b5060018054806108b9576108b861136a565b5b6001900381819060005260206000200160006108d59190610a09565b90555b5050565b600080600090505b60018054905081101561094d5782805190602001206001828154811061090d5761090c6111db565b5b906000526020600020016040516109249190611438565b60405180910390200361093a5780915050610957565b8080610945906112ee565b9150506108e4565b5060018054905090505b919050565b60405180606001604052806060815260200160008019168152602001600080191681525090565b82805461098f906110e3565b90600052602060002090601f0160209004810192826109b157600085556109f8565b82601f106109ca57805160ff19168380011785556109f8565b828001600101855582156109f8579182015b828111156109f75782518255916020019190600101906109dc565b5b509050610a059190610ad6565b5090565b508054610a15906110e3565b6000825580601f10610a275750610a46565b601f016020900490600052602060002090810190610a459190610ad6565b5b50565b828054610a55906110e3565b90600052602060002090601f016020900481019282610a775760008555610ac5565b82601f10610a885780548555610ac5565b82800160010185558215610ac557600052602060002091601f016020900482015b82811115610ac4578254825591600101919060010190610aa9565b5b509050610ad29190610ad6565b5090565b5b80821115610aef576000816000905550600101610ad7565b5090565b6000604051905090565b600080fd5b600080fd5b600080fd5b600080fd5b6000601f19601f8301169050919050565b7f4e487b7100000000000000000000000000000000000000000000000000000000600052604160045260246000fd5b610b5a82610b11565b810181811067ffffffffffffffff82111715610b7957610b78610b22565b5b80604052505050565b6000610b8c610af3565b9050610b988282610b51565b919050565b600067ffffffffffffffff821115610bb857610bb7610b22565b5b610bc182610b11565b9050602081019050919050565b82818337600083830152505050565b6000610bf0610beb84610b9d565b610b82565b905082815260208101848484011115610c0c57610c0b610b0c565b5b610c17848285610bce565b509392505050565b600082601f830112610c3457610c33610b07565b5b8135610c44848260208601610bdd565b91505092915050565b600060208284031215610c6357610c62610afd565b5b600082013567ffffffffffffffff811115610c8157610c80610b02565b5b610c8d84828501610c1f565b91505092915050565b600081519050919050565b600082825260208201905092915050565b60005b83811015610cd0578082015181840152602081019050610cb5565b83811115610cdf576000848401525b50505050565b6000610cf082610c96565b610cfa8185610ca1565b9350610d0a818560208601610cb2565b610d1381610b11565b840191505092915050565b6000819050919050565b610d3181610d1e565b82525050565b60006060830160008301518482036000860152610d548282610ce5565b9150506020830151610d696020860182610d28565b506040830151610d7c6040860182610d28565b508091505092915050565b60006020820190508181036000830152610da18184610d37565b905092915050565b610db281610d1e565b8114610dbd57600080fd5b50565b600081359050610dcf81610da9565b92915050565b600080600060608486031215610dee57610ded610afd565b5b600084013567ffffffffffffffff811115610e0c57610e0b610b02565b5b610e1886828701610c1f565b9350506020610e2986828701610dc0565b9250506040610e3a86828701610dc0565b9150509250925092565b600081519050919050565b600082825260208201905092915050565b6000819050602082019050919050565b60006060830160008301518482036000860152610e8d8282610ce5565b9150506020830151610ea26020860182610d28565b506040830151610eb56040860182610d28565b508091505092915050565b6000610ecc8383610e70565b905092915050565b6000602082019050919050565b6000610eec82610e44565b610ef68185610e4f565b935083602082028501610f0885610e60565b8060005b85811015610f445784840389528151610f258582610ec0565b9450610f3083610ed4565b925060208a01995050600181019050610f0c565b50829750879550505050505092915050565b60006020820190508181036000830152610f708184610ee1565b905092915050565b600082825260208201905092915050565b7f53657276696365206e616d652063616e6e6f7420626520656d70747900000000600082015250565b6000610fbf601c83610f78565b9150610fca82610f89565b602082019050919050565b60006020820190508181036000830152610fee81610fb2565b9050919050565b600081905092915050565b600061100b82610c96565b6110158185610ff5565b9350611025818560208601610cb2565b80840191505092915050565b600061103d8284611000565b915081905092915050565b7f5365727669636520646f6573206e6f7420657869737400000000000000000000600082015250565b600061107e601683610f78565b915061108982611048565b602082019050919050565b600060208201905081810360008301526110ad81611071565b9050919050565b7f4e487b7100000000000000000000000000000000000000000000000000000000600052602260045260246000fd5b600060028204905060018216806110fb57607f821691505b60208210810361110e5761110d6110b4565b5b50919050565b600061111f82610c96565b6111298185610f78565b9350611139818560208601610cb2565b61114281610b11565b840191505092915050565b600060208201905081810360008301526111678184611114565b905092915050565b7f5365727669636520616c72656164792065786973747300000000000000000000600082015250565b60006111a5601683610f78565b91506111b08261116f565b602082019050919050565b600060208201905081810360008301526111d481611198565b9050919050565b7f4e487b7100000000000000000000000000000000000000000000000000000000600052603260045260246000fd5b60008190508160005260206000209050919050565b6000815461122c816110e3565b6112368186610ff5565b94506001821660008114611251576001811461126257611295565b60ff19831686528186019350611295565b61126b8561120a565b60005b8381101561128d5781548189015260018201915060208101905061126e565b838801955050505b50505092915050565b60006112aa828461121f565b915081905092915050565b7f4e487b7100000000000000000000000000000000000000000000000000000000600052601160045260246000fd5b6000819050919050565b60006112f9826112e4565b91507fffffffffffffffffffffffffffffffffffffffffffffffffffffffffffffffff820361132b5761132a6112b5565b5b600182019050919050565b6000611341826112e4565b915061134c836112e4565b92508282101561135f5761135e6112b5565b5b828203905092915050565b7f4e487b7100000000000000000000000000000000000000000000000000000000600052603160045260246000fd5b600081905092915050565b60008190508160005260206000209050919050565b600081546113c6816110e3565b6113d08186611399565b945060018216600081146113eb57600181146113fc5761142f565b60ff1983168652818601935061142f565b611405856113a4565b60005b8381101561142757815481890152600182019150602081019050611408565b838801955050505b50505092915050565b600061144482846113b9565b91508190509291505056fea2646970667358221220f31fd0d620b831e0f27d162ab15386c63e6d96edd909b74798c4760473a84ae564736f6c634300080d0033",
  "immutableReferences": {},
  "source": "// SPDX-License-Identifier: MIT\r\npragma solidity ^0.8.0;\r\n\r\ncontract PasswordContract {\r\n    struct Password {\r\n        string service;\r\n        bytes32 username;\r\n        bytes32 password;\r\n    }\r\n\r\n    mapping(string => Password) private passwords;\r\n    string[] private services;\r\n\r\n    event PasswordAdded(string service);\r\n    event PasswordUpdated(string service);\r\n    event PasswordDeleted(string service);\r\n\r\n    function addPassword(string memory _service, bytes32 _username, bytes32 _password) public {\r\n        require(bytes(_service).length > 0, \"Service name cannot be empty\");\r\n        require(passwords[_service].username == bytes32(0), \"Service already exists\");\r\n\r\n        passwords[_service] = Password(_service, _username, _password);\r\n        services.push(_service);\r\n\r\n        emit PasswordAdded(_service);\r\n    }\r\n\r\n    function getPassword(string memory _service) public view returns (Password memory) {\r\n        require(bytes(_service).length > 0, \"Service name cannot be empty\");\r\n        require(passwords[_service].username != bytes32(0), \"Service does not exist\");\r\n\r\n        return passwords[_service];\r\n    }\r\n\r\n    function editPassword(string memory _service, bytes32 _username, bytes32 _password) public {\r\n        require(bytes(_service).length > 0, \"Service name cannot be empty\");\r\n        require(passwords[_service].username != bytes32(0), \"Service does not exist\");\r\n\r\n        passwords[_service] = Password(_service, _username, _password);\r\n\r\n        emit PasswordUpdated(_service);\r\n    }\r\n\r\n    function deletePassword(string memory _service) public {\r\n        require(bytes(_service).length > 0, \"Service name cannot be empty\");\r\n        require(passwords[_service].username != bytes32(0), \"Service does not exist\");\r\n\r\n        delete passwords[_service];\r\n        removeService(_service);\r\n\r\n        emit PasswordDeleted(_service);\r\n    }\r\n\r\n    function getAllPasswords() public view returns (Password[] memory) {\r\n        Password[] memory allPasswords = new Password[](services.length);\r\n        for (uint i = 0; i < services.length; i++) {\r\n            allPasswords[i] = passwords[services[i]];\r\n        }\r\n        return allPasswords;\r\n    }\r\n\r\n    function removeService(string memory _service) internal {\r\n        uint index = findServiceIndex(_service);\r\n        if (index < services.length) {\r\n            services[index] = services[services.length - 1];\r\n            services.pop();\r\n        }\r\n    }\r\n\r\n    function findServiceIndex(string memory _service) internal view returns (uint) {\r\n        for (uint i = 0; i < services.length; i++) {\r\n            if (keccak256(bytes(services[i])) == keccak256(bytes(_service))) {\r\n                return i;\r\n            }\r\n        }\r\n        return services.length; // Return a value outside the array bounds to indicate not found\r\n    }\r\n}",
  "sourcePath": "D:\\APIIT\\Year 3\\FYP\\Safe-Space\\SMART-CONTRACTS\\contracts\\PasswordContract.sol",
  "compiler": {
    "name": "solc",
    "version": "0.8.13+commit.abaa5c0e.Emscripten.clang"
  },
  "schemaVersion": "3.4.16",
  "updatedAt": "2024-07-27T20:42:01.817Z",
  "networkType": "ethereum",
  "devdoc": {
    "kind": "dev",
    "methods": {},
    "version": 1
  },
  "userdoc": {
    "kind": "user",
    "methods": {},
    "version": 1
  }
}