{
  "contractName": "PasswordContract",
  "abi": [
    {
      "inputs": [
        {
          "internalType": "string",
          "name": "_service",
          "type": "string"
        },
        {
          "internalType": "bytes32",
          "name": "_username",
          "type": "bytes32"
        },
        {
          "internalType": "bytes32",
          "name": "_password",
          "type": "bytes32"
        }
      ],
      "name": "addPassword",
      "outputs": [],
      "stateMutability": "nonpayable",
      "type": "function"
    },
    {
      "inputs": [
        {
          "internalType": "string",
          "name": "_service",
          "type": "string"
        }
      ],
      "name": "getPassword",
      "outputs": [
        {
          "components": [
            {
              "internalType": "string",
              "name": "service",
              "type": "string"
            },
            {
              "internalType": "bytes32",
              "name": "username",
              "type": "bytes32"
            },
            {
              "internalType": "bytes32",
              "name": "password",
              "type": "bytes32"
            }
          ],
          "internalType": "struct PasswordContract.Password",
          "name": "",
          "type": "tuple"
        }
      ],
      "stateMutability": "view",
      "type": "function",
      "constant": true
    },
    {
      "inputs": [],
      "name": "getAllPasswords",
      "outputs": [
        {
          "components": [
            {
              "internalType": "string",
              "name": "service",
              "type": "string"
            },
            {
              "internalType": "bytes32",
              "name": "username",
              "type": "bytes32"
            },
            {
              "internalType": "bytes32",
              "name": "password",
              "type": "bytes32"
            }
          ],
          "internalType": "struct PasswordContract.Password[]",
          "name": "",
          "type": "tuple[]"
        }
      ],
      "stateMutability": "view",
      "type": "function",
      "constant": true
    },
    {
      "inputs": [
        {
          "internalType": "string",
          "name": "_service",
          "type": "string"
        },
        {
          "internalType": "bytes32",
          "name": "_username",
          "type": "bytes32"
        },
        {
          "internalType": "bytes32",
          "name": "_password",
          "type": "bytes32"
        }
      ],
      "name": "editPassword",
      "outputs": [],
      "stateMutability": "nonpayable",
      "type": "function"
    },
    {
      "inputs": [
        {
          "internalType": "string",
          "name": "_service",
          "type": "string"
        }
      ],
      "name": "deletePassword",
      "outputs": [],
      "stateMutability": "nonpayable",
      "type": "function"
    }
  ],
  "bytecode": "0x608060405234801561001057600080fd5b50610f7c806100206000396000f3fe608060405234801561001057600080fd5b50600436106100575760003560e01c806301b8c31c1461005c57806314f003771461008c578063814eca5d146100a8578063b1fc8dc5146100c4578063b2a43c8c146100e0575b600080fd5b610076600480360381019061007191906108f4565b6100fe565b6040516100839190610a2e565b60405180910390f35b6100a660048036038101906100a19190610a7c565b6101dc565b005b6100c260048036038101906100bd91906108f4565b61024e565b005b6100de60048036038101906100d99190610a7c565b610341565b005b6100e86103ef565b6040516100f59190610bfd565b60405180910390f35b610106610603565b6000826040516101169190610c5b565b908152602001604051809103902060405180606001604052908160008201805461013f90610ca1565b80601f016020809104026020016040519081016040528092919081815260200182805461016b90610ca1565b80156101b85780601f1061018d576101008083540402835291602001916101b8565b820191906000526020600020905b81548152906001019060200180831161019b57829003601f168201915b50505050508152602001600182015481526020016002820154815250509050919050565b6040518060600160405280848152602001838152602001828152506000846040516102079190610c5b565b9081526020016040518091039020600082015181600001908051906020019061023192919061062a565b506020820151816001015560408201518160020155905050505050565b60008160405161025e9190610c5b565b90815260200160405180910390206000808201600061027d91906106b0565b600182016000905560028201600090555050600061029a82610583565b905060018054905081101561033d5760018080805490506102bb9190610d0b565b815481106102cc576102cb610d3f565b5b90600052602060002001600182815481106102ea576102e9610d3f565b5b9060005260206000200190805461030090610ca1565b61030b9291906106f0565b50600180548061031e5761031d610d6e565b5b60019003818190600052602060002001600061033a91906106b0565b90555b5050565b60405180606001604052808481526020018381526020018281525060008460405161036c9190610c5b565b9081526020016040518091039020600082015181600001908051906020019061039692919061062a565b5060208201518160010155604082015181600201559050506001839080600181540180825580915050600190039060005260206000200160009091909190915090805190602001906103e992919061062a565b50505050565b6060600060018054905067ffffffffffffffff811115610412576104116107c9565b5b60405190808252806020026020018201604052801561044b57816020015b610438610603565b8152602001906001900390816104305790505b50905060005b60018054905081101561057b5760006001828154811061047457610473610d3f565b5b9060005260206000200160405161048b9190610e31565b90815260200160405180910390206040518060600160405290816000820180546104b490610ca1565b80601f01602080910402602001604051908101604052809291908181526020018280546104e090610ca1565b801561052d5780601f106105025761010080835404028352916020019161052d565b820191906000526020600020905b81548152906001019060200180831161051057829003601f168201915b505050505081526020016001820154815260200160028201548152505082828151811061055d5761055c610d3f565b5b6020026020010181905250808061057390610e48565b915050610451565b508091505090565b600080600090505b6001805490508110156105f4578280519060200120600182815481106105b4576105b3610d3f565b5b906000526020600020016040516105cb9190610f2f565b6040518091039020036105e157809150506105fe565b80806105ec90610e48565b91505061058b565b5060018054905090505b919050565b60405180606001604052806060815260200160008019168152602001600080191681525090565b82805461063690610ca1565b90600052602060002090601f016020900481019282610658576000855561069f565b82601f1061067157805160ff191683800117855561069f565b8280016001018555821561069f579182015b8281111561069e578251825591602001919060010190610683565b5b5090506106ac919061077d565b5090565b5080546106bc90610ca1565b6000825580601f106106ce57506106ed565b601f0160209004906000526020600020908101906106ec919061077d565b5b50565b8280546106fc90610ca1565b90600052602060002090601f01602090048101928261071e576000855561076c565b82601f1061072f578054855561076c565b8280016001018555821561076c57600052602060002091601f016020900482015b8281111561076b578254825591600101919060010190610750565b5b509050610779919061077d565b5090565b5b8082111561079657600081600090555060010161077e565b5090565b6000604051905090565b600080fd5b600080fd5b600080fd5b600080fd5b6000601f19601f8301169050919050565b7f4e487b7100000000000000000000000000000000000000000000000000000000600052604160045260246000fd5b610801826107b8565b810181811067ffffffffffffffff821117156108205761081f6107c9565b5b80604052505050565b600061083361079a565b905061083f82826107f8565b919050565b600067ffffffffffffffff82111561085f5761085e6107c9565b5b610868826107b8565b9050602081019050919050565b82818337600083830152505050565b600061089761089284610844565b610829565b9050828152602081018484840111156108b3576108b26107b3565b5b6108be848285610875565b509392505050565b600082601f8301126108db576108da6107ae565b5b81356108eb848260208601610884565b91505092915050565b60006020828403121561090a576109096107a4565b5b600082013567ffffffffffffffff811115610928576109276107a9565b5b610934848285016108c6565b91505092915050565b600081519050919050565b600082825260208201905092915050565b60005b8381101561097757808201518184015260208101905061095c565b83811115610986576000848401525b50505050565b60006109978261093d565b6109a18185610948565b93506109b1818560208601610959565b6109ba816107b8565b840191505092915050565b6000819050919050565b6109d8816109c5565b82525050565b600060608301600083015184820360008601526109fb828261098c565b9150506020830151610a1060208601826109cf565b506040830151610a2360408601826109cf565b508091505092915050565b60006020820190508181036000830152610a4881846109de565b905092915050565b610a59816109c5565b8114610a6457600080fd5b50565b600081359050610a7681610a50565b92915050565b600080600060608486031215610a9557610a946107a4565b5b600084013567ffffffffffffffff811115610ab357610ab26107a9565b5b610abf868287016108c6565b9350506020610ad086828701610a67565b9250506040610ae186828701610a67565b9150509250925092565b600081519050919050565b600082825260208201905092915050565b6000819050602082019050919050565b60006060830160008301518482036000860152610b34828261098c565b9150506020830151610b4960208601826109cf565b506040830151610b5c60408601826109cf565b508091505092915050565b6000610b738383610b17565b905092915050565b6000602082019050919050565b6000610b9382610aeb565b610b9d8185610af6565b935083602082028501610baf85610b07565b8060005b85811015610beb5784840389528151610bcc8582610b67565b9450610bd783610b7b565b925060208a01995050600181019050610bb3565b50829750879550505050505092915050565b60006020820190508181036000830152610c178184610b88565b905092915050565b600081905092915050565b6000610c358261093d565b610c3f8185610c1f565b9350610c4f818560208601610959565b80840191505092915050565b6000610c678284610c2a565b915081905092915050565b7f4e487b7100000000000000000000000000000000000000000000000000000000600052602260045260246000fd5b60006002820490506001821680610cb957607f821691505b602082108103610ccc57610ccb610c72565b5b50919050565b6000819050919050565b7f4e487b7100000000000000000000000000000000000000000000000000000000600052601160045260246000fd5b6000610d1682610cd2565b9150610d2183610cd2565b925082821015610d3457610d33610cdc565b5b828203905092915050565b7f4e487b7100000000000000000000000000000000000000000000000000000000600052603260045260246000fd5b7f4e487b7100000000000000000000000000000000000000000000000000000000600052603160045260246000fd5b60008190508160005260206000209050919050565b60008154610dbf81610ca1565b610dc98186610c1f565b94506001821660008114610de45760018114610df557610e28565b60ff19831686528186019350610e28565b610dfe85610d9d565b60005b83811015610e2057815481890152600182019150602081019050610e01565b838801955050505b50505092915050565b6000610e3d8284610db2565b915081905092915050565b6000610e5382610cd2565b91507fffffffffffffffffffffffffffffffffffffffffffffffffffffffffffffffff8203610e8557610e84610cdc565b5b600182019050919050565b600081905092915050565b60008190508160005260206000209050919050565b60008154610ebd81610ca1565b610ec78186610e90565b94506001821660008114610ee25760018114610ef357610f26565b60ff19831686528186019350610f26565b610efc85610e9b565b60005b83811015610f1e57815481890152600182019150602081019050610eff565b838801955050505b50505092915050565b6000610f3b8284610eb0565b91508190509291505056fea26469706673582212205a4ff7b7689ce1e34709a37b717f6504c2dead39ae90f3a3161ccf32c0f9a0a164736f6c634300080d0033",
  "immutableReferences": {},
  "source": "// SPDX-License-Identifier: MIT\r\npragma solidity ^0.8.0;\r\n\r\ncontract PasswordContract {\r\n    struct Password {\r\n        string service;\r\n        bytes32 username;\r\n        bytes32 password;\r\n    }\r\n\r\n    mapping(string => Password) private passwords;\r\n    string[] private services;\r\n\r\n    function addPassword(string memory _service, bytes32 _username, bytes32 _password) public {\r\n        passwords[_service] = Password(_service, _username, _password);\r\n        services.push(_service);\r\n    }\r\n\r\n    function getPassword(string memory _service) public view returns(Password memory) {\r\n        return passwords[_service];\r\n    }\r\n\r\n    function getAllPasswords() public view returns (Password[] memory) {\r\n        Password[] memory allPasswords = new Password[](services.length);\r\n        for (uint i = 0; i < services.length; i++) {\r\n            allPasswords[i] = passwords[services[i]];\r\n        }\r\n        return allPasswords;\r\n    }\r\n\r\n    function editPassword(string memory _service, bytes32 _username, bytes32 _password) public {\r\n        passwords[_service] = Password(_service, _username, _password);\r\n    }\r\n\r\n    function deletePassword(string memory _service) public {\r\n        delete passwords[_service];\r\n        \r\n        // Find the index of the service in the services array\r\n        uint index = findServiceIndex(_service);\r\n        \r\n        // If the service was found, remove it from the array\r\n        if (index < services.length) {\r\n            services[index] = services[services.length - 1]; // Move the service to the last spot\r\n            services.pop(); // Remove the last element\r\n        }\r\n    }\r\n\r\n    function findServiceIndex(string memory _service) internal view returns (uint) {\r\n        for (uint i = 0; i < services.length; i++) {\r\n            if (keccak256(bytes(services[i])) == keccak256(bytes(_service))) {\r\n                return i;\r\n            }\r\n        }\r\n        return services.length; // Return a value outside the array bounds to indicate not found\r\n    }\r\n}",
  "sourcePath": "D:\\APIIT\\Year 3\\FYP\\Safe-Space\\SMART-CONTRACTS\\contracts\\PasswordContract.sol",
  "compiler": {
    "name": "solc",
    "version": "0.8.13+commit.abaa5c0e.Emscripten.clang"
  },
  "schemaVersion": "3.4.16",
  "updatedAt": "2024-07-27T18:32:53.419Z",
  "networkType": "ethereum",
  "devdoc": {
    "kind": "dev",
    "methods": {},
    "version": 1
  },
  "userdoc": {
    "kind": "user",
    "methods": {},
    "version": 1
  }
}